{
  "contractName": "GestionPuntos",
  "abi": [
    {
      "inputs": [
        {
          "name": "_profesor",
          "type": "address"
        },
        {
          "name": "_curso",
          "type": "uint256"
        }
      ],
      "payable": false,
      "stateMutability": "nonpayable",
      "type": "constructor"
    },
    {
      "constant": false,
      "inputs": [
        {
          "name": "_matricula",
          "type": "uint256"
        },
        {
          "name": "_nombreCompleto",
          "type": "string"
        },
        {
          "name": "_campus",
          "type": "string"
        },
        {
          "name": "_grupo",
          "type": "string"
        }
      ],
      "name": "registrarAlumno",
      "outputs": [
        {
          "name": "ok",
          "type": "bool"
        }
      ],
      "payable": false,
      "stateMutability": "nonpayable",
      "type": "function"
    },
    {
      "constant": false,
      "inputs": [
        {
          "name": "_matricula",
          "type": "uint256"
        },
        {
          "name": "_puntos",
          "type": "int256"
        }
      ],
      "name": "modificaPuntos",
      "outputs": [
        {
          "name": "saldo",
          "type": "int256"
        }
      ],
      "payable": false,
      "stateMutability": "nonpayable",
      "type": "function"
    },
    {
      "constant": true,
      "inputs": [
        {
          "name": "_matricula",
          "type": "uint256"
        }
      ],
      "name": "getPuntos",
      "outputs": [
        {
          "name": "puntos",
          "type": "int256"
        }
      ],
      "payable": false,
      "stateMutability": "view",
      "type": "function"
    },
    {
      "constant": false,
      "inputs": [
        {
          "name": "_curso",
          "type": "uint256"
        }
      ],
      "name": "modificaCurso",
      "outputs": [
        {
          "name": "ok",
          "type": "bool"
        }
      ],
      "payable": false,
      "stateMutability": "nonpayable",
      "type": "function"
    },
    {
      "constant": true,
      "inputs": [],
      "name": "getCurso",
      "outputs": [
        {
          "name": "thecurso",
          "type": "uint256"
        }
      ],
      "payable": false,
      "stateMutability": "view",
      "type": "function"
    },
    {
      "constant": true,
      "inputs": [],
      "name": "getProfesor",
      "outputs": [
        {
          "name": "theprofesor",
          "type": "address"
        }
      ],
      "payable": false,
      "stateMutability": "view",
      "type": "function"
    }
  ],
  "bytecode": "0x608060405234801561001057600080fd5b506040516040806107c28339810180604052810190808051906020019092919080519060200190929190505050816000806101000a81548173ffffffffffffffffffffffffffffffffffffffff021916908373ffffffffffffffffffffffffffffffffffffffff16021790555080600181905550505061072d806100956000396000f300608060405260043610610078576000357c0100000000000000000000000000000000000000000000000000000000900463ffffffff1680630d126bc41461007d578063159621d2146100a857806317409b42146100ff5780636aabe57714610216578063a62552b314610257578063c35ac080146102a2575b600080fd5b34801561008957600080fd5b506100926102e7565b6040518082815260200191505060405180910390f35b3480156100b457600080fd5b506100bd6102f1565b604051808273ffffffffffffffffffffffffffffffffffffffff1673ffffffffffffffffffffffffffffffffffffffff16815260200191505060405180910390f35b34801561010b57600080fd5b506101fc60048036038101908080359060200190929190803590602001908201803590602001908080601f0160208091040260200160405190810160405280939291908181526020018383808284378201915050505050509192919290803590602001908201803590602001908080601f0160208091040260200160405190810160405280939291908181526020018383808284378201915050505050509192919290803590602001908201803590602001908080601f016020809104026020016040519081016040528093929190818152602001838380828437820191505050505050919291929050505061031a565b604051808215151515815260200191505060405180910390f35b34801561022257600080fd5b50610241600480360381019080803590602001909291905050506103d2565b6040518082815260200191505060405180910390f35b34801561026357600080fd5b5061028c60048036038101908080359060200190929190803590602001909291905050506103f7565b6040518082815260200191505060405180910390f35b3480156102ae57600080fd5b506102cd60048036038101908080359060200190929190505050610560565b604051808215151515815260200191505060405180910390f35b6000600154905090565b60008060009054906101000a900473ffffffffffffffffffffffffffffffffffffffff16905090565b600060a06040519081016040528086815260200185815260200184815260200183815260200160648152506002600087815260200190815260200160002060008201518160000155602082015181600101908051906020019061037e92919061065c565b50604082015181600201908051906020019061039b92919061065c565b5060608201518160030190805190602001906103b892919061065c565b506080820151816004015590505060019050949350505050565b6000806002600084815260200190815260200160002090508060040154915050919050565b60008060008060009054906101000a900473ffffffffffffffffffffffffffffffffffffffff1673ffffffffffffffffffffffffffffffffffffffff163373ffffffffffffffffffffffffffffffffffffffff161415156104e6576040517f08c379a000000000000000000000000000000000000000000000000000000000815260040180806020018281038252603b8152602001807f536f6c6f20656c2070726f6665736f72206465206573746520637572736f207081526020017f75656465206d6f64696669636172206c6f732076616c6f7265732e000000000081525060400191505060405180910390fd5b600260008681526020019081526020016000209150600084121561053e5783826004015401905060008112151561052e57838260040160008282540192505081905550610539565b600082600401819055505b610551565b8382600401600082825401925050819055505b81600401549250505092915050565b60008060009054906101000a900473ffffffffffffffffffffffffffffffffffffffff1673ffffffffffffffffffffffffffffffffffffffff163373ffffffffffffffffffffffffffffffffffffffff1614151561064c576040517f08c379a000000000000000000000000000000000000000000000000000000000815260040180806020018281038252603b8152602001807f536f6c6f20656c2070726f6665736f72206465206573746520637572736f207081526020017f75656465206d6f64696669636172206c6f732076616c6f7265732e000000000081525060400191505060405180910390fd5b8160018190555060019050919050565b828054600181600116156101000203166002900490600052602060002090601f016020900481019282601f1061069d57805160ff19168380011785556106cb565b828001600101855582156106cb579182015b828111156106ca5782518255916020019190600101906106af565b5b5090506106d891906106dc565b5090565b6106fe91905b808211156106fa5760008160009055506001016106e2565b5090565b905600a165627a7a723058201acb62ae3b4a29b4a69cc2a50bfe27e2c151d59fe2cca85a9fc7520aae31da760029",
  "source": "pragma solidity ^0.4.24;\n\ncontract GestionPuntos{\n    \n    address profesor;\n    uint curso;\n    \n    struct Alumno{\n        uint matricula;\n        string nombreCompleto;\n        string campus;\n        string grupo;\n        int puntos;\n    } \n    \n    modifier soloProfesor {\n        require(\n            msg.sender == profesor,\n            \"Solo el profesor de este curso puede modificar los valores.\"\n        );\n        _;\n    }\n    \n    //Constructor, se asigna el profesor y el curso al que pertenece este smart contract\n    constructor(address _profesor, uint _curso) public{\n        profesor = _profesor;\n        curso = _curso;\n    }\n    \n    mapping(uint => Alumno) mRegistros;\n    \n    //Función para el registro de los alumnos\n    //Puede ser llamada publicamente para registro de alumnos\n    function registrarAlumno(\n        uint _matricula, \n        string _nombreCompleto,\n        string _campus,\n        string _grupo) public returns (bool ok){\n        \n        //Al registrar a un alumno con su matricula se le asignan 100 puntos\n        mRegistros[_matricula] = Alumno(_matricula,_nombreCompleto,_campus,_grupo,100);\n        \n        return true;\n    }\n    \n    //Función modificaPuntos para sumar o restar puntos a los alumnos\n    //Puede ser llamada sólo por quien haya registrado el smart contract \n    //Que debe ser el address registrado como profesor\n    function modificaPuntos(\n        uint _matricula, \n        int _puntos) public soloProfesor returns (int saldo){\n        \n        Alumno storage al = mRegistros[_matricula];\n        \n        //validar si es resta\n        if(_puntos < 0){\n            int res = al.puntos + _puntos;\n            \n            if(res >= 0){\n                al.puntos += _puntos;\n            }\n            else{\n                //No puede tener saldo negativo\n                al.puntos = 0;\n            }\n        }\n        else{\n            //suma\n            al.puntos += _puntos;\n        }\n        \n        return al.puntos;\n    }\n    \n    function getPuntos(uint _matricula) public view returns(int puntos){\n         Alumno storage al = mRegistros[_matricula];\n         \n         return al.puntos;\n    }\n    \n    \n    function modificaCurso(\n    uint _curso) public soloProfesor returns (bool ok){\n        \n        curso = _curso;\n        \n        return true;\n    }\n       \n    function getCurso() public view returns(uint thecurso){\n         \n         return curso;\n    }  \n    \n    function getProfesor() public view returns(address theprofesor){\n         \n         return profesor;\n    }\n    \n}",
  "sourcePath": "/Users/garvazsof/Projects/TTP/contracts/GestionPuntos.sol",
  "compiler": {
    "name": "solc",
    "version": "0.4.24+commit.e67f0147.Emscripten.clang"
  },
  "schemaVersion": "2.0.1",
  "updatedAt": "2018-12-05T00:26:10.820Z"
}